:020000040800F2
:10000000686B0020A1010008055100080D4100089F
:10001000D1500008E50A0008056300080000000050
:10002000000000000000000000000000B1540008C3
:10003000270C00080000000009510008295600089C
:10004000BB010008BB010008BB010008BB010008A0
:10005000BB010008BB010008BB010008BB01000890
:10006000BB010008BB010008BB010008BB01000880
:10007000BB010008BB010008BB010008BB01000870
:10008000E90A0008BB010008BB010008BB01000829
:10009000BB010008BB010008BB010008BB01000850
:1000A000BB010008BB010008BB010008BB01000840
:1000B000BB010008BB010008BB010008BB01000830
:1000C000BB010008BB010008BB010008BB01000820
:1000D000BB010008F5620008BB010008BB01000875
:1000E000BB010008BB010008BB010008BB01000800
:1000F000BB010008BB010008BB010008BB010008F0
:10010000BB010008BB010008BB010008BB010008DF
:10011000BB010008BB010008BB010008F95600083C
:10012000ED0A0008BB010008FD0A0008BB01000839
:10013000BB010008BB010008BB010008BB010008AF
:10014000BB010008BB010008BB010008BB0100089F
:10015000BB010008BB0100080D0B0008BB01000833
:10016000BB010008BB010008BB010008BB0100087F
:10017000BB010008BB010008BB0100080000000033
:10018000BB010008BB010008DFF810D000F06CFBD9
:1001900000480047616D0008AFF30080686B0020E5
:1001A0000648804706480047FEE7FEE7FEE7FEE711
:1001B000FEE7FEE7FEE7FEE7FEE7FEE7E55600089E
:1001C000890100082DE9F05F0546002092469B4614
:1001D00088460646814640241BE02846414647465D
:1001E000224600F058FA53465A46C01A914110D39D
:1001F00011461846224600F03FFA2D1A67EB010817
:100200004F4622460120002100F036FA17EB000984
:100210004E41201EA4F10104DFDC484631462A4647
:100220004346BDE8F09F40EA01039B0703D009E085
:1002300008C9121F08C0042AFAD203E011F8013BD2
:1002400000F8013B521EF9D27047D2B201E000F82B
:10025000012B491EFBD270470022F6E710B513466A
:100260000A4604461946FFF7F0FF204610BD2DE967
:10027000FE4F804681EA0300C00F0C46009021F03B
:10028000004123F00045B8EB0200A94105D24046E9
:10029000214690461C460B46024623F00040104380
:1002A00047D0270DC7F30A00C3F30A510290401A42
:1002B000019040286BDAC3F3130040F4801B0098D0
:1002C000924620B10023D2EB030A63EB0B0B01989B
:1002D0005946C0F14002504600F0CEF906460D46A0
:1002E00050465946019A00F0E6F910EB08006141CA
:1002F000002487EA115284EAE7731A4340D0009A37
:1003000062B3019A012A4FEA075215DC001B61EB28
:1003100002014FF0004202EA0752CDE90042001C00
:1003200041F5801132462B4600F0E6F903B0BDE8F6
:10033000F08F40462146F9E7001B61EB0201001CEB
:1003400041F5801300185B412018A2F5001747EB18
:10035000030140EAD570B6196D4111E06D084FEA0E
:10036000360645EAC0754FEA0752001B61EB0201F1
:10037000001C41F5801149084FEA30000019514135
:1003800032462B4603B0BDE8F04F00F0A6B9009806
:10039000012240000023D0EB020263EBE0730098DF
:1003A00021464FEAE074B8EB000061EB0401E9E795
:1003B00083F000435BE781F0004158E72DE9FE4FF1
:1003C00081EA030404F0004421F0004100944FF05E
:1003D000000B23F0004350EA01045ED052EA03040C
:1003E0005BD0C3F30A54C1F30A552C44A4F2F3348E
:1003F0000194A0FB0254C1F3130141F48011C3F333
:10040000130343F4801301FB024400FB034E840AF0
:10041000970A44EA815447EA8357A4FB0768029588
:100420008D0A05FB07854FEA932C04FB0C54270526
:10043000029D4FEA065847EA1637B5EB08056EEB02
:10044000070C870E920E47EA811742EA8312A7FB38
:100450000201B6EB0B0164EB00042B0D43EA0C33F5
:100460005E1844EB1C50DA465146E7FB0201C5F327
:1004700013044FEA0B3343EA14534FEA0432019C4E
:1004800043EA0603A4F10C040294009CCDE900B4F5
:1004900000F032F903B0BDE8F08F00200146F9E723
:1004A0002DE9F04D81EA030404F0004B21F00045F2
:1004B00014464FF0000A23F0004150EA050220D014
:1004C00054EA01021DD0C5F30A570246C5F31303CF
:1004D000C1F31300C1F30A5640F4801543F48013AE
:1004E000A7EB0608101BD64608F2FD3873EB050093
:1004F00002D308F1010801E092185B41B8F1000F46
:1005000003DA00200146BDE8F08D00204FF4801191
:10051000064684460EE0171B73EB050705D3121B36
:1005200063EB050306434CEA010C49084FEA30002F
:1005300092185B4150EA0107EDD152EA030012D054
:1005400082EA040083EA0501084305D0101BAB4191
:1005500006D20122002306E000224FF0004302E011
:100560006FF0010253101AEB06004CEB085110EB30
:100570000A0041EB0B01BDE8F04D00F0AEB80EB53E
:10058000C10F80EAE0700844CA07002140F23343FB
:100590008DE80E000A460B4600F0AEF803B000BD31
:1005A0000EB540F2334102910021CDE900110A4617
:1005B0000B4600F0A1F803B000BDC1F30A5210B51C
:1005C000C1F3130140F2FF3341F480119A4201DA82
:1005D000002010BD40F233439A42A2F2334203DCC2
:1005E000524200F058F810BD904010BD30B5041EC6
:1005F00071F1000404DB4FF00044404264EB010160
:10060000141E73F1000405DB1C464FF000435242F8
:1006100063EB04038B4208BF824230BD30B5041E39
:1006200071F1000404DB4FF00044404264EB01012F
:10063000141E73F1000405DB1C464FF000435242C8
:1006400063EB0403994208BF904230BD30B50B46BE
:10065000014600202022012409E021FA02F59D42F2
:1006600005D303FA02F5491B04FA02F52844151EC6
:10067000A2F10102F1DC30BD202A04DB203A00FAAD
:1006800002F1002070479140C2F1200320FA03F3E9
:10069000194390407047202A04DB203A21FA02F0E7
:1006A0000021704721FA02F3D040C2F120029140AC
:1006B000084319467047202A06DBCB17203A41FA37
:1006C00002F043EAE07306E041FA02F3D040C2F1DF
:1006D0002002914008431946704710B5141E73F16B
:1006E000000408DA401C41F1000192185B411A43F2
:1006F00001D120F0010010BD2DE9F04D92469B463E
:1007000011B1B1FA81F202E0B0FA80F220329046E3
:10071000FFF7B2FF04460F4640EA0A0041EA0B0128
:1007200053465A46084313D0114653EA010019D0E4
:10073000C8F140025046FFF7AEFF05460E46504650
:1007400059464246FFF798FF084305D0012004E0D0
:1007500020463946BDE8F08D0020054346EAE076A4
:100760002C4337430A986305E40AA0EB08000022F3
:10077000FD0A44EA47540A3002D500200146E9E761
:10078000010510196941DDE9084500196941BDE815
:10079000F04DA2E72DE9F04D00231A461B1A8A41BD
:1007A00003DB00200146BDE8F08DC1F30A52C1F31E
:1007B000130141F480154FF0000BD10702D100184E
:1007C0006D41521E0027044640F2FF11384601EBEE
:1007D000620A3E468046024600204FF48011FFF731
:1007E0005AFFC2197141BB1846EB0100B4EB030C70
:1007F00075EB000C04D3E41A65EB000517460E46B2
:10080000241908F101006D4180463428E3DDF9190F
:1008100046EB0600091BA84103D24FF0FF321346F6
:1008200001E0002213461BEB070046EB0A51BDE82E
:10083000F04DFFF752BFC1F30A52C1F3130140F26A
:10084000FF3341F480119A4202DA002001467047DA
:1008500040F233439A42A2F2334202DC5242FFF7A3
:100860001ABFFFF709BF0000064C074D06E0E0681D
:1008700040F0010394E8070098471034AC42F6D3E7
:10088000FFF786FC387000085870000870B5054600
:10089000AC6B206C00F0500050BB206C40F400703A
:1008A00020642068806800F04050E8B9207ED8B904
:1008B0002068C06A00F4700020B12068806800F4ED
:1008C000806088B92068406820F020002168486076
:1008D000206C20F480702064206C00F4805018B9E3
:1008E000206C40F001002064204600F0C5FE0BE0C3
:1008F000206C00F0100018B1204600F0CCFF03E09F
:10090000A06BC16C2846884770BD70B50546AC6BBE
:1009100040202064606C40F004006064204600F0D9
:10092000BAFF70BD70B50446A56B284600F0B2FF53
:1009300070BD000055494A6822F440324A604A6856
:1009400043681A434A600268526822F4807203685E
:100950005A6002685368026943EA022203685A60D7
:100960000268526822F0407203685A600268526856
:1009700083681A4303685A600268926822F400622E
:1009800003689A6002689268C3681A4303689A60B1
:100990003F4B826A9A4218D00268926822F07062D5
:1009A00003689A6002689268836A1A4303689A60CF
:1009B0000268926822F0405203689A600268926866
:1009C000C36A1A4303689A600BE00268926822F0D7
:1009D000706203689A600268926822F0405203686D
:1009E0009A600268926822F0020203689A600268C4
:1009F0009368027E43EA420203689A602022125CF6
:100A0000A2B10268526842F4006203685A60026848
:100A1000526822F4604203685A6002685368426A6E
:100A2000521E43EA423203685A6005E00268526887
:100A300022F4006203685A600268D26A22F47002EB
:100A40000368DA620268D36A828B521E43EA02525A
:100A50000368DA620268926822F4007203689A609E
:100A60000268936890F8302043EA422203689A6053
:100A70000268926822F4806203689A600268936850
:100A8000426943EA822203689A607047002301406A
:100A90000100000F2DE9F0412DED048B05460027E4
:100AA000002403E035F814000744641CB4F5C86F53
:100AB000F8DB3846FFF763FD41EC190B9FED070BA0
:100AC00053EC102BFFF7ECFC41EC180BFFF775FD16
:100AD00086B23046BDEC048BBDE8F081000000001A
:100AE0000000994000BFFEE77047000010B50248C3
:100AF00001F0BEF910BD00009826002010B5024894
:100B000001F0B6F910BD0000942A002010B502488B
:100B100001F0AEF910BD0000F42A0020014608786B
:100B200010381823B0FBF3F20848805CC865032A2C
:100B300005D908686FF30900001D886503E008689F
:100B40006FF309008865886D704700001670000813
:100B5000014600208A6A8B69CBB932B1012A0DD0D7
:100B6000022A03D0032A10D10EE000BFCB6A03F0A3
:100B70008073B3F1807F00D1012007E0CB6AB3F12D
:100B8000C07F00D1012001E000E000BF34E08B69AC
:100B9000B3F5005F1AD132B1012A07D0022A03D07F
:100BA000032A11D10AE000BF01200EE0CB6A03F056
:100BB0008073B3F1807F00D1012006E0CB6AB3F1EE
:100BC000C07F00D1012000E000BF15E032B1012A52
:100BD00005D0022A04D0032A0CD103E000BF00BFD5
:100BE000012008E0CB6A03F08073B3F1807F00D16D
:100BF000012000E000BF00BF704730B504682468E2
:100C000024F4802405682C60046863608468402CA8
:100C100004D10468A2600468E16003E00468A16094
:100C20000468E26030BD704730B52DED028B93B0A3
:100C300004460D46B0EE408AF0EE608A9FED170B39
:100C400053EC102B51EC180BFFF7D0FC0FD29FED9B
:100C5000150B53EC102B51EC180BFFF7DFFC06D2F1
:100C600053EC182B11A101A805F0AEFB03E011A174
:100C700001A805F0A9FB01AA10A106A805F0A4FB94
:100C800006A800234FF6FF72FD2100904FF4167066
:100C900000F0FAFA13B0BDEC028B30BD33333333BE
:100CA0003333244033333333333324C025342E33AA
:100CB000665600002D2E2D2D56000000D6B1C1F72E
:100CC000B5E7D1B93A2025730000000030B52DED0D
:100CD000028B93B004460D46B0EE408AF0EE608A77
:100CE0009FED170B53EC102B51EC180BFFF77EFC0C
:100CF0000FD29FED150B53EC102B51EC180BFFF797
:100D00008DFC06D253EC182B11A101A805F05CFB59
:100D100003E011A101A805F057FB01AA10A106A844
:100D200005F052FB06A800234FF6FF72FD2100904C
:100D30004FF4167000F0A8FA13B0BDEC028B30BD72
:100D400066666666666618409A9999999999B9BFD8
:100D500025342E33665600002D2E2D2D5600000012
:100D6000BDBBC1F7B5E7D1B93A202573000000003B
:100D700030B52DED028B93B004460D46B0EE408A9F
:100D8000F0EE608A9FED170B53EC102B51EC180B13
:100D9000FFF72CFC0FD29FED150B53EC102B51ECF1
:100DA000180BFFF73BFC06D253EC182B11A101A83E
:100DB00005F00AFB03E011A101A805F005FB01AA5B
:100DC00010A106A805F000FB06A800234FF6FF724D
:100DD000FD2100904FF41B7000F056FA13B0BDECEB
:100DE000028B30BD9A9999999999F13F9A9999995D
:100DF0009999F1BF25342E33664100002D2E2D2DFB
:100E000041000000B5E7C1F720203A20257300001B
:100E100008B54FF6E070A22340F213122A21009089
:100E20004B2003F0C7FD4FF6E0704FF4977340F28C
:100E30001312B62100904B2003F0BCFD4FF6E0707A
:100E40004FF4DD7340F213124FF4A17100904B2068
:100E500003F0B0FD4FF6E0704FF4DD7340F2131273
:100E60004FF4A17100904B2003F0A4FD4FF6FF70EA
:100E70004FF491734FF45772F02100904FF4E170EA
:100E800003F098FD22A000234FF6FF72FD21009091
:100E90004FF4E17000F0F8F94FF6E07000234FF4E2
:100EA000D7724FF4F0710090104600F0B1FA1CA018
:100EB00000234FF6FF722A2100904FF4DC7000F0FF
:100EC000E3F91CA000234FF6FF72542100904FF469
:100ED000DC7000F0D9F91CA000234FF6FF725A21F4
:100EE0000090732000F0D0F91AA000234FF6FF7293
:100EF000E6210090732000F0C7F919A000234FF6F7
:100F0000FF724FF4B9710090912000F0BDF908BD57
:100F100020B2E2C1BFBDE1B9FBA3BA2000000000CE
:100F200020323231323131353620C9F2CEC4B2A945
:100F30000000000020323231323039343220C0EE2D
:100F4000CEC4BDDC0000000020D6B1C1F7B5E7D1AA
:100F5000B920000020BDBBC1F7B5E7D1B920000022
:100F600020B5E7C1F720000072B600BFFEE7000021
:100F700070B50446B3F5804F13D1D1E9000540EABE
:100F800005108D6840EA05208D6928438D8940EA67
:100F9000054054F82250064E3540284344F82200BC
:100FA00003E06FF0704044F82200002070BD0000A4
:100FB0000000F0CF70B50246086852F8200020F01B
:100FC00001000E6842F826008868082801D14023F5
:100FD00000E00023486818438E683043CE683043F1
:100FE0000E6930434E693043CE6930430E6A304358
:100FF0004E6A30438E6A3043CE6A30430E6B40EA0D
:10100000060488690443C86B0443074D45F48065B2
:1010100045F4E025086852F82000A84320430E68F4
:1010200042F82600002070BD7FFB080010B5034683
:10103000D1E9000440EA04108C6840EA04208C895D
:1010400040EA0444088A401E44EA0054087D801E99
:1010500044EA00608C692043541C53F8244004F097
:1010600040442043541C43F82400002010BD0000DD
:1010700000B587B0002004900220059000BF00203A
:1010800001901B48006840F040001949086008467C
:10109000006800F04000019000BF00BF02200290F5
:1010A0000120039002A9134801F008F900BF0020B5
:1010B00001900F48006840F040000D490860084664
:1010C000006800F04000019000BF00BF01200290C6
:1010D0001120039002A9074801F0F0F80120064909
:1010E00008600649C1F8800203F0D0F807B000BDDF
:1010F000303802400018024084024342000043425C
:1011000070B505460E46002403F0A6F8702003F0E3
:101110006FF803F0D3F8002003F06AF803F0CEF87C
:1011200003F0B4F803F098F8712003F061F803F0CD
:10113000C5F800BF0DE0701EA04204D1002003F0EE
:1011400029F8285503E0012003F024F82855601CF5
:1011500044B2B442EFD303F099F8002070BD000010
:101160002DE9FF4F8BB091469A46189CDDF82C80F4
:101170000C98019077E0207880282CDA14F801BBD5
:1011800002A9584604F09EF801980F3083B208F186
:10119000070082B24046019903F04EFC002513E09F
:1011A00002A8475D00260CE007F0800018B1354822
:1011B000A0F8009002E03348A0F800A07806070EDF
:1011C000761C082EF0D36D1C102DE9D308F1080011
:1011D0001FFA80F847E014F801BB4FEA0B2B14F814
:1011E000010B40EA0B0B02A9584604F087F801985E
:1011F0000F3083B208F10F0082B24046019903F02C
:101200001BFC002529E002A911F8157000260CE04E
:1012100007F0800018B11B48A0F8009002E01948C0
:10122000A0F800A07806070E761C082EF0D3680000
:10123000401C02A90F5C00260CE007F0800018B1EA
:101240001048A0F8009002E00E48A0F800A0780630
:10125000070E761C082EF0D36D1C102DD3D308F189
:1012600010001FFA80F82078002884D140F2DF13A4
:1012700040F255320021084603F0DEFB0FB0BDE816
:10128000F08F0000000002602DE9FF4F95B09046FE
:101290009946229FDDF854A016980190A7E038786F
:1012A000802843DA97F800B07F1C02A9584604F062
:1012B00016F80198173083B20AF10B0082B250463B
:1012C000019903F0B9FB002629E002A911F8165094
:1012D00000240CE005F0800018B14C48A0F8008014
:1012E00002E04A48A0F800906806050E641C082C2D
:1012F000F0D37000401C02A90D5C00240CE005F046
:10130000800018B14148A0F8008002E03F48A0F8F2
:1013100000906806050E641C042CF0D3761C182E71
:10132000D3D30AF10C001FFA80FA60E097F800B0FE
:101330007F1C4FEA0B2B387840EA0B0B7F1C02A96D
:10134000584603F0F5FF0198173083B20AF11700F1
:1013500082B25046019903F06FFB002641E006EB94
:10136000460002A90D5C00240CE005F0800018B1D5
:101370002648A0F8008002E02448A0F80090680603
:10138000050E641C082CF0D306EB4600401C02A995
:101390000D5C00240CE005F0800018B11B48A0F89B
:1013A000008002E01948A0F800906806050E641C51
:1013B000082CF0D306EB4600801C02A90D5C00242B
:1013C0000CE005F0800018B11048A0F8008002E0A1
:1013D0000E48A0F800906806050E641C082CF0D397
:1013E000761C182EBBD30AF118001FFA80FA387841
:1013F00000287FF454AF40F2DF1340F25532002151
:10140000084603F019FB19B0BDE8F08F0000026038
:101410002DE9FF4F83B0DDF80C80DDF81090DDE999
:10142000030103F042FBDDF80C800598A0EB0805F2
:10143000DDF810900698A0EB0906002D02DB0120D4
:10144000029003E04FF0FF3002906D42002E02DB6D
:101450000120019003E04FF0FF30019076424FEA07
:10146000450A4FEA460BB54217DDABEB05040027F2
:1014700010E01FFA89F11FFA88F0109A00F028F89E
:10148000002C03DBA4EB0A04019881445C4402981D
:1014900080447F1CAF42ECDD16E0AAEB0604002777
:1014A00010E01FFA89F11FFA88F0109A00F010F886
:1014B000002C03DBA4EB0B040298804454440198F5
:1014C00081447F1CB742ECDD07B0BDE8F08F00001F
:1014D00070B505460E4614463146284603F0E5FA37
:1014E0000148048070BD00000000026038B502466B
:1014F0000020009000BF92F83C00012801D102209A
:1015000038BD012082F83C0000BF0868092816D9C0
:101510001068C0680C780A3C04EB44050724AC4012
:10152000A0431468E0600C780A3C04EB440488682B
:10153000A0401468E46820431468E06013E0106879
:1015400000690C7804EB44050724AC40A043146800
:1015500020610C7804EB44048868A0401468246976
:101560002043146820614868072817D21068406B30
:101570000C79641E04EB84051F24AC40A04314685E
:101580006063088880B20C79641E04EB8404A04078
:101590001468646B20431468606331E048680D2868
:1015A00017D21068006B0C79E41F04EB84051F242C
:1015B000AC40A04314682063088880B20C79E41F13
:1015C00004EB8404A0401468246B20431468206357
:1015D00016E01068C06A0C790D3C04EB84051F24EA
:1015E000AC40A0431468E062088880B20C790D3CDE
:1015F00004EB8404A0401468E46A20431468E062A9
:10160000194B1A4C1068A04206D10868122803D161
:10161000586840F480005860144C1068A0421CD1F7
:101620000868102802D00868112816D1586840F4BC
:1016300000005860086810280FD10D4800680D4C54
:10164000B0FBF4F000EB80004000009002E0009856
:10165000401E009000980028F9D100BF002082F8B9
:101660003C0000BF00BF4BE70023014000200140C9
:101670006C00002040420F00F0B52DED028BADF262
:10168000845DADF5005D0546A86B0068674988423A
:101690007DD100241DE004EB4400654931F81000C1
:1016A00041F60411694421F8140004EB4400401C85
:1016B0005F4931F810000DF6844121F8140004EB65
:1016C0004400801C5A4931F8100001A921F8140087
:1016D000641CB4F5C86FDEDB41F604106844FFF704
:1016E000D9F90646FEF75CFF524A03C20DF6844064
:1016F000FFF7D0F90646FEF753FF4F4A03C201A891
:10170000FFF7C8F90646FEF74BFF4C4A03C24A48AA
:1017100090ED000B51EC100BFEF74FFF87B20DF66A
:101720008441384605F01CFC0646FEF739FF444A62
:1017300003C2404890ED000B53EC102B9FED410B82
:1017400051EC100BFEF73AFE41EC180B9FED3F0BEE
:1017500053EC102BFEF72CFE3E4A03C2384890EDA6
:10176000000B53EC102B9FED3C0B51EC100BFEF7D4
:1017700025FE3B4A03C2314890ED000B53EC102B81
:101780009FED380B51EC100BFEF718FE00E045E022
:1017900041EC180B9FED350B53EC102BFEF708FEB8
:1017A000344A03C29FED340B53EC102B344890EDB8
:1017B000000B51EC100BFEF719FF07D1254890EDF7
:1017C000000B4FF4E1711420FFF72EFA9FED2D0B63
:1017D00053EC102B2A4890ED000B51EC100BFEF748
:1017E00005FF07D11E4890ED000B4FF4E171142066
:1017F000FFF76CFA9FED250B53EC102B204890ED72
:10180000000B51EC100BFEF7F1FE07D1194890EDDB
:10181000000B4FF4E1711420FFF7AAFA0DF2845D7A
:101820000DF5005DBDEC028BF0BD000010640240C0
:101830009000002008000020100000201800002068
:10184000200000203E93FDF33460803FEAD0E97928
:10185000377A3040280000203B53E8BCC62E813F39
:10186000300000202D431CEBE2364A3F232E008D32
:10187000D265FA3F38000020000000000000F03F71
:101880007800002000000000000000400000000080
:10189000000008407047704701460868C06C7047F8
:1018A00070B5044600250CB9012070BD1549A06A29
:1018B000884200D000BF206C30B9204600F024F8E8
:1018C0000020606484F83C00206C00F0100088B9AF
:1018D000206C20F4885040F0020020642046FFF77E
:1018E00029F800206064206C20F0020040F0010024
:1018F000206400E0012500BF002084F83C0000BF08
:101900002846D2E70100000F10B586B00446142126
:1019100001A8FEF7A1FC2849206888424AD100BFEF
:10192000002000902548006840F48070234908603A
:101930000846006800F48070009000BF00BF00BF40
:10194000002000901D481438006840F004001B4936
:10195000143908600846006800F00400009000BFD9
:1019600000BF07200190032002900020039001A9EE
:10197000134800F0A3FC1348134908600020486096
:10198000002111488160C1604FF48061016149000C
:101990004161890081614911C16100210162416297
:1019A00000F086FB08B1FFF7DFFA00BF0648A0632E
:1019B000846300BF06B010BD0020014044380240DF
:1019C00000080240106402409826002070B50446CA
:1019D0000D4600262068806800F48060B0F5806FB6
:1019E00011D12068806800F48070B0F5807F0AD142
:1019F000206C40F02000206400BF002084F83C00F0
:101A000000BF012070BD00F059FD064618E0681CBB
:101A1000B0B125B100F052FD801BA84210D920685A
:101A2000006800F0020002280AD0206C40F0040098
:101A3000206400BF002084F83C0000BF0320E1E7E1
:101A40002068006800F002000228E0D16FF0120068
:101A500021680860206C40F4007020642068806871
:101A600000F04050B8B9207EA8B92068C06A00F4E0
:101A7000700020B12068806800F4806058B9206C44
:101A800020F480702064206C00F4805018B9206C21
:101A900040F0010020640020B4E7000008B50146D2
:101AA0000020009000BF91F83C00012801D10220E5
:101AB00008BD012081F83C0000BF0868806800F084
:101AC0000100A0B90868806840F001000B689860C8
:101AD0003F4800683F4BB0FBF3F000EB4000009044
:101AE00002E00098401E009000980028F9D1086894
:101AF000806800F00100002860D0086C40F20163AB
:101B0000984340F4807008640868406800F480607E
:101B100028B1086C20F4005040F480500864086C30
:101B200000F48050B0F5805F04D1486C20F00600CE
:101B3000486401E00020486400BF002081F83C00B8
:101B400000BF254A6FF022000B681860506800F053
:101B50001F0018BB214B0868984213D0204B08681F
:101B6000984204D1101D006800F01F0050B11D4BB9
:101B7000086898422AD11848001D006800F01F002C
:101B8000102823D20868806800F04050F0B9086837
:101B9000806840F080400B68986017E00F4B086841
:101BA000984213D10868806800F0405070B9086806
:101BB000806840F080400B68986007E0086C40F057
:101BC00010000864486C40F00100486400206FE792
:101BD0006C00002040420F00002301400020014023
:101BE0000021014000220140F8B504460D4616468A
:101BF0000020009000BF94F83C00012801D1022091
:101C0000F8BD012084F83C0000BF2068806800F027
:101C10000100A0B92068806840F001002168886058
:101C2000554800685549B0FBF1F000EB40000090CA
:101C300002E00098401E009000980028F9D120682A
:101C4000806800F48070B0F5807F05D120688068DE
:101C500020F48070216888602068806800F00100AE
:101C600000287ED0206C40F20161884340F48070EF
:101C700020642068406800F4806028B1206C20F463
:101C8000005040F480502064206C00F48050B0F587
:101C9000805F04D1606C20F00600606401E00020E9
:101CA000606400BF002084F83C0000BF344F35481A
:101CB000A16BC8633448A16B08643448A16BC86445
:101CC0006FF02200216808602068406840F0806062
:101CD000216848602068806840F4807021688860CE
:101CE000226802F14C0133462A46A06B00F056FAF6
:101CF000786800F01F0018BB25492068884213D07F
:101D000024492068884204D1381D006800F01F0073
:101D100050B12149206888422BD11948001D006824
:101D200000F01F00102824D22068806800F0405086
:101D3000F8B92068806840F080402168886018E029
:101D400013492068884214D12068806800F0405010
:101D500078B92068806840F080402168886008E099
:101D6000FFE7206C40F010002064606C40F0010040
:101D70006064002044E700006C00002040420F0037
:101D8000002301408D080008250900080B09000800
:101D900000200140002101400022014070B50446AE
:101DA000A56D00F08BFB064694F83500022808D09C
:101DB0008020606500BF002084F8340000BF01204F
:101DC00070BD2068006820F0160021680860206857
:101DD000406920F0800021684861206C08B9A06C3F
:101DE00028B12068006820F0080021680860206899
:101DF000006820F001002168086010E000F05EFB40
:101E0000801B05280BD920206065032084F835004D
:101E100000BF002084F8340000BF0320D0E7206812
:101E2000006800F001000028E8D194F85C103F2021
:101E30008840A860012084F8350000BF002084F8A5
:101E4000340000BF00BFBBE7014691F8350002280F
:101E500003D08020486501207047052081F83500B7
:101E60000868006820F001000A6810600020F3E7AD
:101E7000F8B50446002000908C4800684FF41651D5
:101E8000B0FBF1F7A56D2E6894F85C10082088402F
:101E9000304098B12068006800F0040070B12068FC
:101EA000006820F004002168086094F85C100820A5
:101EB0008840A860606D40F00100606594F85C1097
:101EC00001208840304068B12068406900F08000FF
:101ED00040B194F85C1001208840A860606D40F02B
:101EE0000200606594F85C1004208840304068B1BE
:101EF0002068006800F0020040B194F85C100420F3
:101F00008840A860606D40F00400606594F85C1043
:101F100010208840304078B32068006800F0080046
:101F200050B394F85C1010208840A86020680068C6
:101F300000F4802080B12068006800F4002028B9F7
:101F4000206CC8B12046216C884715E0A06C98B180
:101F50002046A16C88470FE02068006800F480707C
:101F600028B92068006820F0080021680860206C0B
:101F700010B12046216C884794F85C1020208840DE
:101F80003040002865D02068006800F0100000286C
:101F90005FD094F85C1020208840A86094F8350049
:101FA000052828D12068006820F016002168086004
:101FB0002068406920F0800021684861206C08B9E1
:101FC000A06C28B12068006820F008002168086033
:101FD00094F85C103F208840A860012084F8350008
:101FE00000BF002084F8340000BF206D10B12046EF
:101FF000216D8847F8BD2068006800F4802080B11A
:102000002068006800F4002028B9606C10B12046F8
:10201000616C88471DE0E06BD8B12046E16B8847D2
:1020200017E02068006800F4807068B920680068D4
:1020300020F0100021680860012084F8350000BFFE
:10204000002084F8340000BFE06B10B12046E16B43
:102050008847606D38B3606D00F00100F0B1052075
:1020600084F835002068006820F0010021680860CD
:1020700000BF0098401C0090B84200D905E02068DD
:10208000006800F001000028F3D100BF012084F8AF
:10209000350000BF002084F8340000BFE06C10B1B0
:1020A0002046E16C884700BFA4E700006C000020D8
:1020B0002DE9F0410446002500F000FA074614B966
:1020C0000120BDE8F081606A00B100BF022084F801
:1020D000350000BF002084F8340000BF206800688D
:1020E00020F00100216808600AE000F0E7F9C01B59
:1020F000052805D920206065032084F83500E0E735
:102100002068006800F001000028EED12068056812
:1021100021480540D4E901010843E16808432169E9
:10212000084361690843A1690843E1690843216ADA
:1021300008430543606A042803D1D4E90B0108432E
:102140000543206805602068456925F00705606A39
:102150000543606A04280DD1A06A0543E06A48B1CE
:102160002046FEF7F5FC28B140206065012084F888
:102170003500A6E7206845612046FEF7CFFC0646FD
:1021800094F85C103F208840B0600020606501201A
:1021900084F83500002094E73F8010F02DE9F047E7
:1021A00004460D4616461F464FF00008D4F85890D6
:1021B00000BF94F83400012802D10220BDE8F08766
:1021C000012084F8340000BF94F83500012825D19F
:1021D000022084F83500002060653B4632462946DF
:1021E0002046FEF70AFD94F85C103F208840C9F8AD
:1021F00008002068006840F0160021680860206C24
:1022000028B12068006840F0080021680860206854
:10221000006840F001002168086006E000BF00206F
:1022200084F8340000BF4FF002084046C6E70000C3
:1022300000B587B0142102A8FEF70EF81B4800680D
:1022400008B107B000BD01201849086000BF002098
:1022500001901748006840F00100154908600846E1
:10226000006800F00100019000BF00BF4FF68070D1
:1022700002900220039000200490032005900C207F
:10228000069002A90B4800F019F84CF6B3700290C2
:102290000220039000200490032005900C2006905B
:1022A00002A9054800F00AF800BFCAE75400002060
:1022B0003838024000100240000C0240F8B50246D7
:1022C0000B460025002400200021D6E0012606FA56
:1022D00001F51E6806EA0504AC4274D11E7906F0C9
:1022E0000306012E04D01E7906F00306022E13D138
:1022F00090684F000326BE40B0434F00DE68BE40EA
:1023000030439060506801268E40B0431E79C6F37A
:1023100000168E40304350601E7906F00306032EEF
:1023200009D0D0684F000326BE40B0434F009E68DE
:10233000BE403043D0601E7906F00306022E13D152
:10234000CF0802F1200656F827004E07F70E0F2699
:10235000BE40B0434F07FF0E1E69BE403043CF085A
:1023600002F1200646F8270010684F000326BE4001
:10237000B0431E7906F003064F00BE4030431060A4
:102380005E6806F44036002E76D000BF0026009628
:102390003C4E366846F480463A4F3E603E463668CC
:1023A00006F48046009600BF00BF374E8F0856F8EF
:1023B00027008E07370F0F26BE40B043334EB24280
:1023C00002D1002624E057E0314EB24201D101266D
:1023D0001EE0304EB24201D1022619E02E4EB2422A
:1023E00001D1032614E02D4EB24201D104260FE0A4
:1023F0002B4EB24201D105260AE02A4EB24201D14B
:10240000062605E0284EB24201D1072600E0082644
:102410008F073F0FBE4030431B4E8F0846F8270002
:10242000224E3068A0435E6806F4801606B1204351
:102430001E4E3060361D3068A0435E6806F40016FC
:1024400006B12043194E361D3060184E361F3068D5
:10245000A0435E6806F4003606B12043134E361FD3
:102460003060361F3068A0435E6806F4803606B1DF
:1024700020430E4E083E3060491C1029FFF426AF61
:10248000F8BD000044380240083801400000024016
:102490000004024000080240000C0240001002400C
:1024A0000014024000180240001C0240083C014099
:1024B0000AB1816101E00B04836170470148006843
:1024C0007047000060000020034800680349097855
:1024D000084401490860704760000020680000203F
:1024E00010B50D48006840F400700B4908600846BC
:1024F000006840F4806008600846006840F480701E
:102500000860032000F0A2F80F2000F007F800F0A8
:102510002BF8002010BD0000003C024070B50446BE
:102520000E4800784FF47A71B1FBF0F00C4909685D
:10253000B1FBF0F5284600F01CFE08B1012070BD8B
:10254000102C07D200222146501E00F041F8054809
:10255000046001E00120F2E70020F0E768000020BD
:102560006C0000206400002008B500BF002000902F
:102570000E48006840F480400C4908600846006836
:1025800000F48040009000BF00BF00BF002000901A
:10259000081F006840F08050091F08600846006866
:1025A00000F08050009000BF00BF08BD44380240DA
:1025B00001460846002809DB00F01F0301229A406B
:1025C00043099B0003F1E023C3F8002100BF7047DB
:1025D0002DE9F05F80460D461646002703F008FF00
:1025E000074639462A46334601F00700C0F1070A7C
:1025F000BAF1040F02D94FF0040A01E0C0F1070A52
:10260000D14600F1040ABAF1070F02D24FF0000AD6
:1026100001E0A0F1030AD4464FF0010A0AFA09FAD0
:10262000AAF1010A0AEA020A0AFA0CFA4FF0010BAF
:102630000BFA0CFBABF1010B0BEA030B4AEA0B04A0
:102640002146404603F0DCFEBDE8F09F00BF00F0ED
:102650000702064B19684FF6FF031940044B0B4362
:1026600043EA0221014B196000BF70470CED00E006
:102670000000FA0570B504460D460CB9012070BD86
:102680005848006800F00700A84209D255490D706B
:102690000846006800F00700A84201D00120EEE7DC
:1026A000207800F0020002281DD1207800F00400FC
:1026B000042805D14C48006840F4E0504A490860BD
:1026C000207800F00800082805D14748006840F449
:1026D0006040454908604448006820F0F000A16867
:1026E000084341490860207800F00100A8B3606801
:1026F000012807D13C4808380068C0F34040B8B909
:102700000120BCE76068022802D06068032807D176
:10271000354808380068C0F3406048B90120AEE78A
:10272000314808380068C0F3400008B90120A6E726
:102730002D48006820F00300616808432A490860BA
:10274000FFF7BCFE064609E0FFF7B8FE801B41F22A
:102750008831884202D9032091E707E022480068C7
:1027600000F00C006168B0EB810FEDD11D480068EE
:1027700000F00700A84209D91A490D700846006800
:1027800000F00700A84201D0012078E7207800F08F
:102790000400042807D11448006820F4E050E168E0
:1027A000084311490860207800F00800082808D183
:1027B0000D48006820F46040216940EAC1000A49E0
:1027C000086000F03FF808490968C1F30311074A9F
:1027D000515CC8400649086006480068FFF79EFE45
:1027E00000204CE7003C0240083802401E70000800
:1027F0006C00002064000020014800687047000061
:102800006C00002000B5FFF7F7FF04490968C1F329
:102810008221034A515CC84000BD000008380240D4
:102820002E70000800B5FFF7E7FF04490968C1F3FF
:102830004231034A515CC84000BD000008380240E4
:102840002E7000082DE9F047002400250026A1463F
:102850002548006800F00C0020B1042805D00828A5
:102860003AD105E0DFF8849039E0DFF8849036E073
:102870001D48001F006800F03F041B48001F00684F
:1028800000F4800078B11A481749091F0968C1F39C
:102890008811A0FB01700146224600233846FDF74F
:1028A00091FC05460EE011480F49091F0968C1F364
:1028B0008811A0FB01700146224600233846FDF72F
:1028C00081FC05460848001F0068C0F30140401C19
:1028D0004600B5FBF6F902E0DFF8109000BF00BF3C
:1028E0004846BDE8F0870000083802400024F400A4
:1028F00000127A00F8B504460CB90120F8BD207822
:1029000000F00100002874D0F948006800F00C00C5
:1029100004280DD0F648006800F00C00082813D1F8
:10292000F348001F006800F48000B0F5800F0BD161
:10293000EF4808380068C0F34040002859D060686C
:10294000002856D10120D9E700BF6068B0F5803F6C
:1029500008D1E7480838006840F48030E449083975
:1029600008601EE06068B0F5A02F0DD1E04808387F
:10297000006840F48020DE49083908600846006895
:1029800040F4803008600CE0D9480838006820F432
:102990008030D749083908600846006820F4802054
:1029A000086000BF606890B1FFF788FD054606E04B
:1029B000FFF784FD401B642801D903209EE7CC4823
:1029C00008380068C0F340400028F1D011E0FFF75C
:1029D00075FD054606E0FFF771FD401B642801D92F
:1029E00003208BE7C24808380068C0F34040002845
:1029F000F1D1207800F0020002285FD1BC480068C5
:102A000000F00C0058B1BA48006800F00C0008282B
:102A10001CD1B748001F006800F48000B0B9B4486A
:102A200008380068C0F3400020B1E068012801D0F8
:102A3000012063E7AE480838006820F0F8002169FB
:102A400040EAC100AA490839086037E0E06800B3ED
:102A50000120A8490860FFF731FD054606E0FFF7B1
:102A60002DFD401B022801D9032047E7A048083864
:102A70000068C0F340000028F1D09D480838006885
:102A800020F0F800216940EAC1009949083908603E
:102A900014E0002097490860FFF710FD054606E0A6
:102AA000FFF70CFD401B022801D9032026E79048C0
:102AB00008380068C0F340000028F1D1207800F009
:102AC000080008282CD16069A8B101208A49086053
:102AD000FFF7F4FC054606E0FFF7F0FC401B022878
:102AE00001D903200AE782486C300068C0F3400037
:102AF0000028F1D014E000207F490860FFF7DEFCD9
:102B0000054606E0FFF7DAFC401B022801D9032046
:102B1000F4E677486C300068C0F340000028F1D13B
:102B2000207800F00400042870D100277048383065
:102B3000006800F0805090B900BF002000906C4801
:102B40003830006840F080506949383108600846E4
:102B5000006800F08050009000BF00BF0127674868
:102B6000006800F48070B0B96448006840F4807078
:102B700062490860FFF7A2FC054606E0FFF79EFCED
:102B8000401B022801D90320B8E65C48006800F425
:102B900080700028F2D000BFA068012808D15448F6
:102BA0006830006840F001005149683108601DE05C
:102BB000A06805280DD14E486830006840F0040038
:102BC0004B49683108600846006840F00100086021
:102BD0000CE047486830006820F001004449683143
:102BE00008600846006820F00400086000BFA06884
:102BF000A8B1FFF763FC054609E0FFF75FFC401B47
:102C000041F28831884202D9032077E626E038482D
:102C100068300068C0F340000028EED013E0FFF7F2
:102C20004DFC054608E0FFF749FC401B41F28831A6
:102C3000884201D9032061E62D4868300068C0F35E
:102C400040000028EFD1012F07D129483830006813
:102C500020F0805026493831086000BFA069002864
:102C600045D02348006800F00C0008285DD0A0691A
:102C7000022845D100201F490866FFF71FFC0546C2
:102C800006E0FFF71BFC401B022801D9032035E6B4
:102C9000174808380068C0F340600028F1D1D4E933
:102CA00007010843616A40EA81110122A06AC2EB70
:102CB000500041EA00412C20005D41EA00600C49CF
:102CC000091F086001200B490866FFF7F7FB05465E
:102CD00006E0FFF7F3FB401B022801D903200DE6B5
:102CE000034808380068C0F340600028F1D049E08C
:102CF0000838024000004742800E47420070004002
:102D0000002021490866FFF7D9FB054606E0FFF7DA
:102D1000D5FB401B022801D90320EFE51B480068C2
:102D2000C0F340600028F2D12CE0A069012800D156
:102D3000E4E51648001D0668A069012820D006F4C5
:102D40008001E06981421BD106F03F01206A814287
:102D500016D147F6C0703040616AB0EB811F0FD1C9
:102D600006F440310122A06AC2EB5000B1EB004FE3
:102D700006D106F070612C20005DB1EB006F01D030
:102D80000120BBE50020B9E50000474200380240C1
:102D900010B504460CB9012010BD606A38B96068EE
:102DA000B0F5827F00D105E00021E16102E0002161
:102DB000216161610021A16294F8510028B90020CD
:102DC00084F85000204600F047F8022084F85100B3
:102DD0002068006820F0400021680860A08800F4A6
:102DE0008270218901F404410843A18901F4006142
:102DF0000843217C01F002010843217D01F001011B
:102E00000843218B01F400710843217F01F0380150
:102E100008432021095D01F080010843218D01F460
:102E200000510843216808600421A06901EA1040AC
:102E300094F8241001F010010843216848602068CC
:102E4000C06920F400602168C8610020606501202D
:102E500084F8510000209FE710B586B00446142185
:102E600001A8FDF7F9F91B492068884230D100BF5D
:102E7000002000901848006840F48040164908601F
:102E80000846006800F48040009000BF00BF00BF0B
:102E90000020009010481038006840F002000E49F1
:102EA000103908600846006800F00200009000BF7A
:102EB00000BF4FF460400190022002900020039078
:102EC000032004900520059001A90448FFF7F6F9B6
:102ED00006B010BD003800404038024000040240F7
:102EE0002DE9FF5F0446884691461D460E9E01204F
:102EF00002900020019000BF94F85000012803D1F7
:102F0000022004B0BDE8F09F012084F8500000BF0B
:102F1000FFF7D4FA074694F851B060680390AA46C8
:102F2000BBF1010F0BD00398B0F5827F04D1A068EC
:102F300010B9BBF1040F02D002200190DBE0B8F120
:102F4000000F03D0B9F1000F00D015B90120019096
:102F5000D1E094F85100042802D0052084F85100F3
:102F600000206065C4F83890E587A587C4F83080F4
:102F7000E586A586206460642068006800F0400053
:102F8000402805D02068006840F0400021680860B3
:102F9000E068B0F5006F4AD1606810B1BAF1010F76
:102FA00009D1206B00882168C860206B801C2063D9
:102FB000E08E401EE08633E02068806800F002006A
:102FC000022810D1E08E70B1029801280BD1206B3D
:102FD00000882168C860206B801C2063E08E401E42
:102FE000E086002002902068806800F0010068B14F
:102FF000E08F58B12068C068A16B0880A06B801C6E
:10300000A063E08F401EE08701200290FFF756FA90
:10301000C01BB04204D3701C10B1032001906AE0C1
:10302000E08E0028C8D1E08F0028C5D14AE0606852
:1030300010B1BAF1010F09D1206B00782168087333
:10304000206B401C2063E08E401EE08634E0206848
:10305000806800F00200022810D1E08E70B1029862
:1030600001280BD1206B007821680873206B401C6D
:103070002063E08E401EE086002002902068806879
:1030800000F0010068B1E08F58B12068C068A16B02
:103090000870A06B401CA063E08F401EE0870120F9
:1030A0000290FFF70BFAC01BB04201D3701C00B9AD
:1030B00016B9032001901EE0E08E0028C7D1E08FF2
:1030C0000028C4D13A463146204602F04FF920B1DB
:1030D00001200190202060650DE0A06850B900BF7C
:1030E000002000902068C0680090206880680090F0
:1030F00000BF00BF00BF012084F8510000BF0020C6
:1031000084F8500000BF0198FBE670B504460E46F7
:1031100015460CB9012070BD94F8490028B900206B
:1031200084F84800204600F01FF804F108012068E8
:10313000FDF740FF3146A2682068FDF777FF29467A
:10314000236BD4E90102FDF713FFA168206850F852
:10315000210040F00100A268216841F8220001200E
:1031600084F849000020D6E710B50446FFF760F860
:1031700010BD70B504462546681EB0F1807F01D3AE
:1031800001200FE0681E4FF0E02148610F214FF051
:10319000FF3003F035F900204FF0E021886107206F
:1031A0000861002070BD70477047000030B50246CE
:1031B0000B4600BF92F83C00012801D1022030BD2F
:1031C000012082F83C0000BF022082F83D00106818
:1031D00044681068816824F070041868044310681B
:1031E0004460184D1068A8421BD01068B0F1804FA1
:1031F00017D0154D1068A84213D0144D1068A8427E
:103200000FD0134D1068A8420BD0124D1068A84281
:1032100007D0114D1068A84203D0104D1068A84285
:1032200005D121F0800158680143106881600120B8
:1032300082F83D0000BF002082F83C0000BF00BFC4
:10324000BDE700000000014000040040000800400D
:10325000000C004000040140004001400018004004
:1032600010B504460CB9012010BD94F83D0028B9F2
:10327000002084F83C00204600F026F8022084F864
:103280003D00211D206802F03FFA012084F846002D
:1032900000BF84F83E0001213F2001554020015528
:1032A0004120015500BF00BF012084F842004320A7
:1032B0000155442001554520015500BF012084F8E7
:1032C0003D000020D0E7000008B50168B1F1804F53
:1032D0000FD100BF002100912449096841F001018C
:1032E000224A11601146096801F00101009100BFF6
:1032F0003BE01F4A016891420FD100BF00210091BD
:103300001A49096841F00201184A1160114609681A
:1033100001F00201009100BF27E0164A01689142C6
:103320000FD100BF002100911049096841F0100140
:103330000E4A11601146096801F01001009100BFAA
:1033400013E00D4A016891420FD100BF00210091A6
:103350000649096841F02001044A116011460968D4
:1033600001F02001009100BF00BF08BD40380240BD
:10337000000400400010004000140040014691F895
:103380003D00012801D001207047022081F83D0056
:103390001A4B086898421BD00868B0F1804F17D0CC
:1033A000174B0868984213D0164B086898420FD004
:1033B000154B086898420BD0144B0868984207D008
:1033C000134B0868984203D0124B086898420CD1FE
:1033D0000868806800F00702062A0CD008680068B8
:1033E00040F001000B68186005E00868006840F0D4
:1033F00001000B6818600020C6E7000000000140D3
:103400000004004000080040000C0040000401409F
:103410000040014000180040014691F83D0001289D
:1034200001D001207047022081F83D000868C06883
:1034300040F001000B68D8601A4B086898421BD016
:103440000868B0F1804F17D0174B0868984213D026
:10345000164B086898420FD0154B086898420BD05D
:10346000144B0868984207D0134B0868984203D061
:10347000124B086898420CD10868806800F0070277
:10348000062A0CD00868006840F001000B6818603C
:1034900005E00868006840F001000B681860002033
:1034A000C0E70000000001400004004000080040A8
:1034B000000C0040000401400040014000180040A2
:1034C0002DE9F04104460D46002700BF94F83C006A
:1034D000012802D10220BDE8F081012084F83C00DF
:1034E00000BF022084F83D002068866826F0770639
:1034F00026F47F46206886602868502833D00CDC8C
:10350000202850D004DC00284BD0102851D149E0AD
:10351000302849D040284CD139E060282DD070287F
:1035200007D0B0F5805F03D0B0F5005F41D10DE06A
:1035300041E0D5E902136A68206802F062F9206868
:10354000866846F077062068866034E0D5E9021385
:103550006A68206802F055F92068806840F480406D
:103560002168886027E0EA686968206802F03AFA12
:103570005021206802F050F91DE0EA68696820686F
:1035800002F043FA6021206802F046F913E0EA688D
:103590006968206802F026FA4021206802F03CF9B0
:1035A00009E000BF00BF00BF2968206802F034F9BD
:1035B00001E0012700BF00BF012084F83D0000BFEB
:1035C000002084F83C0000BF384684E7704710B5FF
:1035D000044620680069C0F34000D8B12068C06884
:1035E000C0F34000B0B16FF0020021680861012013
:1035F00020772068806900F0030018B12046FFF7AB
:10360000E5FF05E0204600F0DBF8204600F08FF9EA
:103610000020207720680069C0F38000D8B12068BE
:10362000C068C0F38000B0B16FF004002168086189
:10363000022020772068806900F4407018B120468D
:10364000FFF7C4FF05E0204600F0BAF8204600F07E
:103650006EF90020207720680069C0F3C000D8B15F
:103660002068C068C0F3C000B0B16FF008002168E6
:103670000861042020772068C06900F0030018B1B9
:103680002046FFF7A3FF05E0204600F099F820460A
:1036900000F04DF90020207720680069C0F3001089
:1036A000D8B12068C068C0F30010B0B16FF010004E
:1036B00021680861082020772068C06900F4407004
:1036C00018B12046FFF782FF05E0204600F078F8A9
:1036D000204600F02CF9002020772068006900F0D7
:1036E000010058B12068C06800F0010030B16FF0EF
:1036F000010021680861204600F0A0F920680069F7
:10370000C0F3C01058B12068C068C0F3C01030B119
:103710006FF08000216808612046FFF744FD2068B3
:103720000069C0F3801058B12068C068C0F38010F1
:1037300030B16FF0400021680861204600F094F934
:1037400020680069C0F3401058B12068C068C0F319
:10375000401030B16FF02000216808612046FFF76B
:1037600023FD10BD10B586B00446142101A8FCF756
:1037700073FD2068B0F1804F1BD100BF0020009086
:103780000D48006840F001000B49086008460068D9
:1037900000F00100009000BF00BF022001900290E5
:1037A0000020039004900120059001A90348FEF732
:1037B00085FD06B010BD0000303802400000024018
:1037C00070472DE9F04104460D461646002700BF1C
:1037D00094F83C00012802D10220BDE8F0810120CC
:1037E00084F83C0000BF36B1042E1BD0082E31D027
:1037F0000C2E5ED145E02946206802F017F82068BB
:10380000806940F00800216888612068806920F0A4
:10381000040021688861206880692969084321685B
:10382000886148E02946206802F038F820688069FD
:1038300040F40060216888612068806920F480601D
:103840002168886120688069296940EA012021682F
:10385000886130E02946206802F05EF82068C0697F
:1038600040F008002168C8612068C06920F00400A9
:103870002168C8612068C069296908432168C86156
:1038800019E02946206802F083F82068C06940F4F6
:1038900000602168C8612068C06920F480602168E8
:1038A000C8612068C069296940EA01202168C861AF
:1038B00001E0012700BF00BF00BF002084F83C00EA
:1038C00000BF384689E710B504460CB9012010BD89
:1038D00094F83D0028B9002084F83C00204600F010
:1038E00025F8022084F83D00211D206801F00CFF1E
:1038F000012084F8460000BF84F83E0001213F20EB
:103900000155402001554120015500BF00BF012055
:1039100084F84200432001554420015545200155BB
:1039200000BF012084F83D000020D0E770477047B9
:1039300070B504460D4615B994F83E000BE0042D11
:1039400002D13F20005D06E0082D02D14020005D3D
:1039500001E04120005D012801D0012070BD1DB9AA
:10396000022084F83E000EE0042D03D102213F2006
:10397000015508E0082D03D102214020015502E045
:1039800002214120015501222946206801F028FF2B
:1039900023492068884203D022492068884201D107
:1039A000012000E0002028B12068406C40F4004075
:1039B000216848641A49206888421BD02068B0F109
:1039C000804F17D018492068884213D017492068C3
:1039D00088420FD01649206888420BD011492068D0
:1039E000884207D013492068884203D012492068D2
:1039F00088420CD12068806800F00706062E0CD0A3
:103A00002068006840F001002168086005E0206837
:103A1000006840F001002168086000209EE7000077
:103A20000000014000040140000400400008004084
:103A3000000C00400040014000180040064A0168A8
:103A4000914208D105490968C943054AC2F8801264
:103A50000121044A11707047001400400082424264
:103A600000804242800000207047F8B504460E46B0
:103A7000174694F83E00202836D106B10FB9012030
:103A8000F8BD00BF94F83C00012801D10220F7E7FF
:103A9000012084F83C0000BF20633A4631462046AE
:103AA00002F046FB0546EDB9206B012819D100BF95
:103AB0000020009020680068009020684068009016
:103AC00000BF00BF00BF00BF21680C3151E8001FDC
:103AD00041F0100021680C3141E80002002AF3D1C6
:103AE00000E001252846CBE70220C9E7044B026825
:103AF0009A4204D10022034B1A70034A1180704786
:103B0000001001405C0000205E00002070470000B3
:103B10002DE9F84F0446206805682068C6682068CB
:103B200047694FF00009CA4605F00F09B9F1000FC7
:103B30000AD105F0200038B106F0200020B120465F
:103B400002F064F9BDE8F88FB9F1000F7CD007F0FE
:103B5000010018B906F49070002875D005F0010036
:103B600030B106F4807018B1206C40F00100206480
:103B700005F0040030B107F0010018B1206C40F0EE
:103B80000200206405F0020030B107F0010018B116
:103B9000206C40F00400206405F0080048B106F0F5
:103BA000200010B907F0010018B1206C40F00800A7
:103BB0002064206C002846D005F0200028B106F0D3
:103BC000200010B1204602F021F920684069C0F3BE
:103BD000801A206C00F0080010B9BAF1000F2DD047
:103BE000204602F0BAF82068406900F04000402802
:103BF00020D100BF00BF2168143151E8001F21F01F
:103C000040002168143141E80002002AF3D100BFCE
:103C1000A06B50B17548A16B0865A06BFEF714F955
:103C200088B1A06B016D88470DE02046FFF76EFF5D
:103C300009E009E02046FFF769FF04E02046FFF7AE
:103C400065FF002020647DE7206B012876D105F018
:103C50001000002872D006F010000028FAD000BF33
:103C60000020009020680068009020684068009064
:103C700000BF00BF2068406900F0400040285ED1CE
:103C8000A06B006840681FFA80F8B8F1000F54D0AC
:103C9000A08D404551DDA4F82E80A06BC069B0F521
:103CA000807F43D000BF00BF21680C3151E8001F66
:103CB00021F4807021680C3141E80002002AF3D120
:103CC00000BF00BF00BF2168143151E8001F21F080
:103CD00001002168143141E80002002AF3D100BF3D
:103CE00000BF00BF2168143151E8001F21F04000DF
:103CF0002168143141E80002002AF3D100BF2020DE
:103D000084F83E000020206300BF00BF21680C3112
:103D100051E8001F21F0100021680C3141E8000239
:103D2000002AF3D100BFA06BFEF738F8A08DE28D1A
:103D3000801A81B22046FFF7D9FE03E740E0A08D4C
:103D4000E18D401A1FFA80F8E08DC0B3B8F1000F82
:103D500035D000BF00BF21680C3151E8001F21F4AD
:103D6000907021680C3141E80002002AF3D100BFB5
:103D700000BF00BF2168143151E8001F21F001008D
:103D80002168143141E80002002AF3D100BF20204D
:103D900084F83E000020206300BF00BF21680C3182
:103DA00051E8001F21F0100021680C3141E80002A9
:103DB000002AF3D100BF41462046FFF797FEC1E637
:103DC00005F0800030B106F0800018B1204602F006
:103DD00017FAB7E605F0400030B106F0400018B120
:103DE000204601F0F0FFADE600BFABE6C15B000886
:103DF00010B504460CB9012010BDA06900B100E067
:103E000000BF94F83D0028B9002084F83C0020460B
:103E100000F028F8242084F83D002068C06820F4D1
:103E200000502168C860204602F06CF820680069E4
:103E300020F49040216808612068406920F02A0041
:103E4000216848612068C06840F400502168C8605B
:103E500000202064202084F83D0084F83E000020EB
:103E6000CAE7000010B586B00446142101A8FCF78B
:103E7000F3F93949206888426CD100BF00200090D6
:103E80003648006840F01000344908600846006871
:103E900000F01000009000BF00BF00BF00200090A5
:103EA0002E481438006840F001002C49143908608D
:103EB0000846006800F00100009000BF00BF4FF40A
:103EC000C060019002200290002003900320049023
:103ED0000720059001A92248FEF7F0F92148224960
:103EE00008604FF00060486000211F488160C16099
:103EF0004FF480610161002141618161C161016212
:103F00004162FEF7D5F808B1FDF72EF800BF16485C
:103F1000A063846300BF13487830144908604FF0F1
:103F2000006048604021114881600021C1604FF469
:103F300080610161002141618161C1610162416271
:103F4000FEF7B6F808B1FDF70FF800BF0748606349
:103F5000846300BF06B010BD001001404438024029
:103F60000000024040640240942A0020F42A00200D
:103F7000034A0168914202D10021024A1170704740
:103F8000001001405C00002070472DE9F84F044606
:103F90000E46174699464FF0000A94F83D00202837
:103FA0005AD106B117B90120BDE8F88F00BF94F8C7
:103FB0003C00012801D10220F6E7012084F83C00F2
:103FC00000BF00202064212084F83D00FEF776FA2F
:103FD0008246A784E784A068B0F5805F04D1206999
:103FE00010B90025B04602E035464FF0000800BF8A
:103FF000002084F83C0000BF1BE0534600228021D3
:104000002046CDF8009002F02BF908B10320CBE751
:1040100045B9B8F80000C0F308002168486008F10D
:10402000020803E02878216848606D1CE08C401E7F
:10403000E084E08C0028E0D1534600224021204655
:10404000CDF8009002F00CF908B10320ACE7202075
:1040500084F83D000020A7E70220A5E7F7B5044655
:10406000154694F83D00202846D1019800B10DB9BD
:104070000120FEBD00BF94F83C00012801D10220C0
:10408000F7E7012084F83C0000BF01982062A58476
:10409000E58400202064212084F83D001748616BEE
:1040A000C8631748616B08641648616BC8640020D8
:1040B000616B086501AE23681A1D31682B46606B81
:1040C000FEF76CF86FF040002168086000BF002028
:1040D00084F83C0000BF00BF00BF2168143151E8E4
:1040E000001F41F080002168143141E80002002ADD
:1040F000F3D100BF0020BCE70220BAE7F55C00085E
:104100004D5D0008D55B00087047704700BFFEE7B3
:1041100000B50020094908600949C1F8800219204A
:1041200000F010F8012005490860192000F00AF895
:1041300000200349C1F8840200BD0000840243420C
:104140000000434208B50021009104E0BDF80010D2
:10415000491C89B20091BDF800108142F6DB08BD10
:1041600000B500200949086001200949C1F8800212
:104170001920FFF7E7FF0120044908601920FFF725
:10418000E1FF00200249C1F8840200BD84024342DD
:104190000000434230B50446002201201249086065
:1041A000002517E000201049091D08601920FFF7BD
:1041B000C9FF01200D49C1F884025006020E0A48C9
:1041C0008038006808B1501CC2B21920FFF7BAFF4E
:1041D000681CC5B2082DE5DB14B9FFF7C1FF01E08B
:1041E000FFF796FF104630BD800243420000434275
:1041F00008B50246002016490860009022E002F04F
:10420000800020B101201249091F086003E000204E
:104210000F49091F08601920FFF794FF01200C497E
:1042200008601920FFF78EFF00200A49C1F88402B8
:104230001920FFF787FF5006020E9DF80000401C72
:10424000C0B200909DF800000828D8DB08BD00002F
:10425000840243420000434200B50120094908603E
:104260000949C1F884022820FFF76CFF00200549A6
:1042700008602820FFF766FF00200349C1F8840288
:1042800000BD0000800243420000434200B5002010
:10429000084908600849C1F884022820FFF752FF46
:1042A0000120044908600449C1F884022820FFF76E
:1042B00049FF00BD800243420000434208B5002090
:1042C00000900120114908600F20FFF73BFF0120FB
:1042D0000F49C1F884020F20FFF734FF0CE0BDF84E
:1042E0000000401C80B20090BDF80000642803DD8F
:1042F000FFF7CCFF012008BD044880380068002883
:10430000EDD10249091D086000BFF4E78002434275
:104310000000434200B587B00020039001200490C4
:104320000220059000BF002001902B48006840F05B
:104330001000294908600846006800F0100001904C
:1043400000BF00BF0120029002A92448FDF7B6FF7C
:1043500000BF002001902048006840F010001E4976
:1043600008600846006800F01000019000BF00BF20
:104370000220029002A91948FDF7A0FF00BF00200B
:1043800001901548006840F0100013490860084685
:10439000006800F01000019000BF00BF04200290F0
:1043A00002A90E48FDF78AFF00BF002001900A48CD
:1043B000006840F01000084908600846006800F0F6
:1043C0001000019000BF00BF0820029002A903481E
:1043D000FDF774FF07B000BD303802400010024006
:1043E0000021017041708170C170704700B587B0C5
:1043F00001200390002004900220059000BF0020BF
:1044000001901948006840F0080017490860084604
:10441000006800F00800019000BF00BF4FF400509A
:10442000029002A91148FDF749FF012010490860D8
:1044300000BF002001900C48006840F020000A49AD
:1044400008600846006800F02000019000BF00BF2F
:104450004FF48040029002A90648FDF72FFF00208C
:104460000549086007B000BD30380240000C02402A
:10447000B482414200140240B882424210B5FFF7B4
:10448000B5FF00F0B9F9FF2001F094FFFF2001F023
:1044900095FF982001F092FF062001F08FFFBC20CD
:1044A00001F088FF032001F089FF0F2001F086FF53
:1044B000632001F083FF692001F080FF012001F0FB
:1044C0007DFF012001F07AFF1B2001F077FF112012
:1044D00001F074FF702001F071FF732001F06EFF96
:1044E000FF2001F06BFFFF2001F068FF082001F0C2
:1044F00065FF092001F062FF052001F05FFF002049
:1045000001F05CFFEE2001F059FFE22001F056FFC0
:10451000012001F053FF002001F050FFC12001F005
:104520004DFFBD2001F046FF012001F047FF232091
:1045300001F044FF452001F041FF672001F03EFFFC
:10454000012001F03BFF232001F038FF452001F05E
:1045500035FF672001F032FFBE2001F02BFF002065
:1045600001F02CFF222001F029FF272001F026FF77
:104570006A2001F023FFBC2001F020FFD82001F0C9
:104580001DFF922001F01AFF222001F017FF2220C8
:1045900001F014FFC72001F00DFF8F2001F00EFF86
:1045A000802001F00BFFED2001F004FF7F2001F0DF
:1045B00005FF0F2001F002FFC02001F0FBFEC72025
:1045C00001F0FCFE0B2001F0F9FE022001F0F6FEE6
:1045D000002001F0F3FE002001F0F0FE882001F041
:1045E000EDFE2C2001F0EAFE502001F0E7FE002055
:1045F00001F0E4FE002001F0E1FE002001F0DEFE0B
:10460000002001F0DBFEFF2001F0D8FEFC2001F0CD
:10461000D1FE042001F0D2FEDF2001F0CBFE00200D
:1046200001F0CCFE002001F0C9FE002001F0C6FE22
:10463000002001F0C3FE002001F0C0FE202001F0A8
:10464000BDFEF32001F0B6FE742001F0B7FEB420E9
:1046500001F0B0FE002001F0B1FE002001F0AEFE3E
:10466000002001F0ABFEF72001F0A4FE812001F054
:10467000A5FEB12001F09EFE002001F09FFE10205B
:1046800001F09CFE142001F099FEF12001F092FE51
:10469000292001F093FE8A2001F090FE072001F00E
:1046A0008DFEF22001F086FE402001F087FED22030
:1046B00001F084FE502001F081FE282001F07EFEF2
:1046C000C12001F077FE172001F078FE852001F06F
:1046D00075FE852001F072FE202001F06FFEE020C3
:1046E00001F068FE002001F069FE0C2001F066FE7A
:1046F000152001F063FE0D2001F060FE0F2001F097
:104700005DFE0C2001F05AFE072001F057FE052047
:1047100001F054FE072001F051FE0B2001F04EFE87
:10472000102001F04BFE102001F048FE0D2001F09A
:1047300045FE172001F042FE0F2001F03FFE002051
:1047400001F03CFEE12001F035FE002001F036FED4
:104750000D2001F033FE152001F030FE0E2001F097
:104760002DFE102001F02AFE0D2001F027FE08206A
:1047700001F024FE062001F021FE072001F01EFEBC
:104780000C2001F01BFE112001F018FE112001F099
:1047900015FE0E2001F012FE172001F00FFE0F2073
:1047A00001F00CFE002001F009FE352001F002FEB0
:1047B000002001F003FE362001F0FCFDA02001F0F6
:1047C000FDFD3A2001F0F6FD552001F0F7FD112026
:1047D00001F0F0FD782000F023F8292001F0EAFD37
:1047E0000A2000F01DF8012002490860072000F0AF
:1047F000C3F810BDB882424200B5002006490860E7
:104800000A2000F00DF801200449C1F8B40202208A
:1048100000F006F800BD0000B48241420080414231
:1048200008B50CE04FF4E151009104E0BDF8001030
:10483000491E89B20091BDF800100029F6DC011E66
:10484000A0F10102D0B2EDD108BD000000B587B0E3
:10485000142102A8FBF700FD012003900020049022
:104860000120059000BF002001903D48006840F005
:1048700020003B4908600846006800F020000190D5
:1048800000BF00BF4FF40050029002A93548FDF769
:1048900015FD00BF002001903148006840F0200065
:1048A0002F4908600846006800F02000019000BF12
:1048B00000BF8814029002A92A48FDF7FFFC00BF40
:1048C000002001902648006840F02000244908603C
:1048D0000846006800F02000019000BF00BFC81427
:1048E000029002A91F48FDF7E9FC00BF00200190DB
:1048F0001B48006840F0020019490860084600683B
:1049000000F00200019000BF00BF0220029002A947
:104910001548FDF7D3FC00BF002014490860144976
:10492000C1F8B0021149083908601249C1F884027F
:1049300000BF00BF01900A48006840F0200008490D
:1049400008600846006800F02000019000BF00BF2A
:104950000120029002A90348FDF7B0FC07B000BD9A
:10496000303802400014024000040240B482424247
:10497000008042420080404270B5044640F2DF139E
:1049800040F255320021084600F056F800250AE0B2
:10499000002603E006480480701C86B2B6F5F07F5E
:1049A000F8DB681C85B240F256308542F0DB70BD02
:1049B000000002602DE9F04F06460F4614461D46E2
:1049C000A64203DAA01B1FFA80F902E0301B1FFA8F
:1049D00080F9AF4203DAE81B1FFA80FA02E0781B85
:1049E0001FFA80FA681E83B2601E82B239463046D2
:1049F00000F022F84FF000080FE04FF0000B06E047
:104A00000C49099808800BF101001FFA80FBD3457F
:104A1000F6DD08F101001FFA80F8C845EDDD40F22F
:104A2000DF1340F255320021084600F005F8BDE8DA
:104A3000F08F0000000002602DE9F04304460D46AF
:104A4000944202DC2646174601E0164627469D4260
:104A500002DCA846994601E09846A9462A2001F0C2
:104A6000A9FC301201F0AAFCF0B201F0A7FC381248
:104A700001F0A4FCF8B201F0A1FC2B2001F09AFC9B
:104A80004FEA282001F09AFC08F0FF0001F096FCA4
:104A90004FEA292001F092FC09F0FF0001F08EFCA2
:104AA0002C2001F087FCBDE8F08300B502460B46E0
:104AB0002A2001F07FFC101201F080FCD0B201F03E
:104AC0007DFC2B2001F076FC181201F077FCD8B2A7
:104AD00001F074FC2C2001F06DFC00BD1FB500201E
:104AE00000900190029003902248234908604FF4FF
:104AF000803048600021204881600121016100214F
:104B0000017680F820104FF08051C1624910816217
:104B10000021C1600321C161012180F83010002112
:104B20004161FCF7BDFE08B1FCF71EFA0A200090B7
:104B3000012001900220029069460F48FCF7D6FC44
:104B400008B1FCF711FA0B20009002200190694691
:104B50000948FCF7CBFC08B1FCF706FA0C200090E2
:104B60000320019069460448FCF7C0FC08B1FCF73B
:104B7000FBF91FBD002001405026002008B500BFF2
:104B8000002000901E48006840F480001C49086026
:104B90000846006800F48000009000BF00BF00BF1E
:104BA000002000900846006840F4001008600846A5
:104BB000006800F40010009000BF00BF0022114602
:104BC0001020FDF705FD1020FDF7F2FC0022114634
:104BD0003820FDF7FDFC3820FDF7EAFC00221146E5
:104BE0003A20FDF7F5FC3A20FDF7E2FC00221146E1
:104BF0004620FDF7EDFC4620FDF7DAFC08BD00007D
:104C00003038024000B587B01C216846FBF724FB12
:104C10004FF020401849086018484860002088601C
:104C200000211548C16001611021416100218161AD
:104C3000C161016241624FF4805181620021C16211
:104C40000163416381634164022000900F20019061
:104C50000120029000200390102004901120059064
:104C600000200690002269460348FEF74EFA08B17C
:104C7000FCF77AF907B000BDF8260020040100A077
:104C800000B587B0142102A8FBF7E6FA00BF0020A8
:104C900001907448006840F01000724908600846AE
:104CA000006800F01000019000BF00BF00BF0020AE
:104CB00001900846006840F004000860084600685B
:104CC00000F00400019000BF00BF00BF0020019071
:104CD0000846006840F0200008600846006800F0C0
:104CE0002000019000BF00BF00BF002001900846D7
:104CF000006840F0800008600846006800F080000E
:104D0000019000BF00BF00BF00200190084600686E
:104D100040F0010008600846006800F001000190C2
:104D200000BF00BF00BF002001900846006840F0AF
:104D3000020008600846006800F00200019000BF11
:104D400000BF00BF002001900846006840F040000E
:104D500008600846006800F04000019000BF00BFF6
:104D600000BF002001900846006840F0080008607D
:104D70000846006800F00800019000BF00BF012253
:104D800002213948FDF794FB01224FF46051374866
:104D9000FDF78EFB7F2002900320039000200490FB
:104DA00002A93348FDF78AFA4FF6FE7002900320FD
:104DB00003900020049002A92E48FDF77FFA4CF2E0
:104DC000FF700290032003900020049002A927485E
:104DD000FDF774FA49F6ED100290032003900020CD
:104DE000049002A92448FDF769FA41F6FD7002908B
:104DF000032003900020049002A91B48FDF75EFAEF
:104E000002200290012003900020049002200590CF
:104E100002A91548FDF752FA4FF4605002900120A4
:104E20000390002004900220059002A90F48FDF78E
:104E300045FA4FF6FF700290032003900020049083
:104E400002A90E48FDF73AFA43F24C000290032003
:104E500003900020049002A90948FDF72FFA07B03B
:104E600000BD00003038024000040240001402403F
:104E700000100240000802400000024000180240FA
:104E8000000C024010B5002201212520FDF7A0FBF7
:104E90002520FDF78DFB002207213720FDF798FB29
:104EA0003720FDF785FB10BD10B50E480E49086090
:104EB0004FF48270486000210B488160C16002217C
:104EC000016101214161490281610021C1610162E9
:104ED000416281620A21C162FDF75AFF08B1FCF705
:104EE00043F810BD003800404827002000B58DB0C1
:104EF000002009900A900B900C90079008901C21BC
:104F00006846FBF7A9F94FF080402049086053201C
:104F1000486000211D48816040F2E731C1600021F6
:104F200001618161FEF79CF908B1FCF71DF84FF4AF
:104F30008050099009A91548FEF7C2FA08B1FCF79C
:104F400013F81248FEF7BFFC08B1FCF70DF800207B
:104F50000790089007A90D48FEF728F908B1FCF75B
:104F600003F860200090C820019000200290049077
:104F7000042269460548FEF724FC08B1FBF7F4FF5C
:104F80000248FEF7EFFB0DB000BD0000A027002097
:104F900000B587B000200390049005900690019022
:104FA0000290154815490860002048600021134808
:104FB00081604FF6FF71C160002101618161FEF7E0
:104FC0004FF908B1FBF7D0FF4FF48050039003A9CD
:104FD0000A48FEF775FA08B1FBF7C6FF20200190DA
:104FE0000020029001A90548FEF7E0F808B1FBF7A0
:104FF000BBFF07B000BD000000040040E827002010
:105000001CB50020009001900E480F490860002058
:10501000486000210C4881604FF6FF71C16000219B
:105020008161FEF71DF908B1FBF79EFF202000907B
:105030000020019069460448FEF7B8F808B1FBF774
:1050400093FF1CBD00100040302800201CB500203C
:10505000009001900E480F490860532048600021DD
:105060000C48816042F20F71C16000218161FEF73E
:10507000F7F808B1FBF778FF00200090019069462F
:105080000448FEF793F808B1FBF76EFF1CBD000063
:10509000001400407828002010B50B480B49086028
:1050A0004FF4E1304860002108488160C16001612F
:1050B0000C21416100218161C161FEF799FE08B1B7
:1050C000FBF752FF10BD000000100140502A0020E5
:1050D00000BFFEE770B504460E46154666602068C0
:1050E000B0F1804F03D006492068884201D1E560C5
:1050F00001E0A9B2E1602046FEF7B2F870BD000001
:10510000000C004000BFFEE7704700001EB50446DB
:1051100020886B4908806088488020790871208940
:1051200008816089488107216846FBF7E9FF9DF8FF
:10513000020000F00F00012838D19DF8030000F0B4
:105140000F00208020884FF6FF7101EA00202080A8
:1051500020889DF8041008442080208840F25631B1
:10516000884204DA2088081A401E208001E00020CE
:1051700020809DF8050000F00F00608060884FF6E9
:10518000FF7101EA0020608060889DF806100844E5
:1051900060806088B0F5F07F05DA6088C0F5F07057
:1051A000401E608006E00020608003E040F6FF7053
:1051B000208060804248007968B9208840F6FF71FD
:1051C000884205D16088884202D10020207129E000
:1051D0000120207126E03A480079012803D03848A0
:1051E000007902280DD1208840F6FF71884205D150
:1051F0006088884202D10320207113E002202071D0
:1052000010E02F48007903280CD1208840F6FF7168
:10521000884205D16088884202D10020207101E0D7
:10522000012020712079022830D120882449098862
:10523000401A00B22081208910B9002060710CE072
:10524000B4F90800002802DD0220607105E0B4F91D
:105250000800002801DA0120607160881849498837
:10526000401A00B26081608910B90020A07112E07C
:10527000B4F90A00002802DD0220A0710BE0B4F9A5
:105280000A00002807DA0120A07104E00020607104
:10529000A071208160812079032802D10020A081A3
:1052A0000DE0207958B9A089642803DAA089401C50
:1052B000A08104E0A0896E2801DD6E20A0811EBDC2
:1052C000542B002070B504460D464FF4802000EBAF
:1052D000041610223146284601F03EF870BD70B524
:1052E00004460D4604EB44004FF4812101EB001607
:1052F00030223146284601F02FF870BD2DE9F041EB
:1053000004460D46E7B2C4F30726A6F1A100C0EBA0
:10531000001101EB401007EB4000A138002101EB28
:10532000401820224146284601F016F8BDE8F081D9
:105330002DE9F04104460D46E6B2C4F30728A8F172
:10534000A100C0EB001101EB401006EB4000A138BA
:1053500000EBC0004FF4902101EBC0074822394612
:10536000284600F0F9FFBDE8F08100007CB5044656
:105370000D461646164800681821B0FBF1F0154995
:10538000B0FBF1F04FF47A71484301906068B0F5DA
:10539000827F0DD12B46002280212046009600F00E
:1053A0001BF898B1606D40F02000606503207CBD63
:1053B00000BF019800B908E00198401E01902068E4
:1053C0008068C0F3C0100028F3D100BF0020EEE7D2
:1053D0006C00002040420F002DE9F84F04460D46B6
:1053E00090461E46DDF82890FDF768F8A0EB09000E
:1053F000371AFDF763F882462C480068C0F3CB30BB
:105400007843009045E0701C002842D0FDF756F824
:10541000A0EB0A00B84200D2A7BB2068406820F089
:10542000E000216848606068B0F5827F0DD1A06817
:10543000B0F5004F03D0A068B0F5806F05D12068AB
:10544000006820F0400021680860A06AB0F5005FA5
:105450000DD100BF2068006820F40050216808606A
:105460002068006840F400502168086000BF0120F7
:1054700084F8510000BF002084F8500000BF0320D2
:10548000BDE8F88FFFE7009800B900270098401E9C
:105490000090206880682840A84201D1012000E0E7
:1054A00000204045AFD10020EAE700006C0000205A
:1054B00070470000FEB505460C46224606A1684628
:1054C00000F082FF0646B2B24FF0FF33694628462D
:1054D000FEF75BFDFEBD0000256400002DE9F041F4
:1054E0002DED0C8B044688464349206888420FD036
:1054F0004249206888420BD041492068884207D041
:1055000040492068884203D03F492068884202D140
:105510009FED3E8B01E09FED3F8B00262068B0F1B0
:10552000804F03D03D492068884225D14046FBF793
:1055300026F841EC1B0B701CFBF721F841EC1D0B0E
:1055400053EC1D2B51EC180BFAF7AAFF41EC1C0B86
:1055500053EC1B2BFAF7A4FF41EC1A0B9FED300B19
:1055600053EC102BFAF724FF41EC190B51EC190BFB
:10557000FBF723F8054632E000272CE04046FAF717
:10558000FEFF41EC1B0B701CFAF7F9FF41EC1D0B01
:1055900053EC1D2B51EC180BFAF782FF41EC1C0B5E
:1055A00053EC1B2BFAF77CFF41EC1A0B9FED1C0B05
:1055B00053EC102BFAF7FCFE41EC190B51EC190BD4
:1055C000FAF7FBFF0546B5F5803F00D206E0701CF8
:1055D00086B2781C87B2B7F5803FCFDB00BF0020D2
:1055E000216848622A4631462046FFF773FDBDEC2C
:1055F0000C8BBDE8F0810000000001400004014078
:10560000004001400044014000480140000000000B
:10561000F406A44100000000F4069441000C004090
:10562000000000000000F03F10B5FCF74DFF10BD7A
:1056300000B593B0302107A8FAF70EFE142102A896
:10564000FAF70AFE00BF002001902448006840F0ED
:105650008050224908600846006800F080500190A0
:1056600000BF00BF00BF002001901D48006840F44B
:1056700080401B4908600846006800F480400190A3
:1056800000BF00BF012007900004089002200D9089
:1056900041050E9108210F914FF4A871109102213C
:1056A00011910421129107A8FDF724F908B1FBF725
:1056B0005BFC0F20029002200390002004904FF426
:1056C000A05005904FF480500690052102A8FCF7E9
:1056D000D1FF08B1FBF748FC13B000BD40380240D1
:1056E000007000400348006840F470000149086001
:1056F0007047000088ED00E010B50248FDF767FF35
:1057000010BD00007828002010B50268294B98428F
:105710000ED0B0F1804F0BD0274B984208D0274BCA
:10572000984205D0264B984202D0264B984203D18E
:1057300022F070024B681A431E4B984220D0B0F101
:10574000804F1DD01C4B98421AD01C4B984217D04A
:105750001B4B984214D01B4B984211D01A4B9842C5
:105760000ED01A4B98420BD0194B984208D0194BC7
:10577000984205D0184B984202D0184B984203D15A
:1057800022F44072CB681A4322F080034C6943EA4A
:10579000040202608B68C3620B688362054B984207
:1057A00002D0084B984201D10B6903630123436186
:1057B00010BD00000000014000040040000800404F
:1057C000000C004000040140004001400044014042
:1057D0000048014000180040001C0040002000402C
:1057E00030B501F01F05012404FA05F3046A9C4357
:1057F0000462046A01F01F0502FA05F52C430462F5
:1058000030BD30B50C46816821F47F4142EA032562
:1058100025432943816030BD0A46816821F070012B
:1058200042F00703194381607047000030B5056AF4
:1058300025F001050562026A4368846924F070045A
:1058400024F003040D682C4322F002028D682A43E1
:10585000104DA84200D103E00F4DA84206D100BF71
:1058600022F00802CD682A4322F00402094DA84222
:1058700002D0094DA84207D123F4807323F40073AA
:105880004D692B438D692B43436084614D684563AB
:10589000026230BD000001400004014030B5056ADD
:1058A00025F010050562026A4368846924F4E04427
:1058B00024F440740D6844EA052422F020028D6827
:1058C00042EA0512124DA84200D103E0114DA84250
:1058D00007D100BF22F08002CD6842EA051222F013
:1058E00040020B4DA84202D00A4DA84209D123F430
:1058F000806323F400634D6943EA85038D6943EABD
:105900008503436084614D688563026230BD000099
:10591000000001400004014030B5056A25F480759F
:105920000562026A4368C46924F0700424F0030429
:105930000D682C4322F400728D6842EA0522124D54
:10594000A84200D103E0114DA84207D100BF22F4C4
:105950000062CD6842EA052222F480620A4DA84224
:1059600002D00A4DA84209D123F4805323F40053F6
:105970004D6943EA05138D6943EA05134360C46129
:105980004D68C563026230BD000001400004014063
:1059900030B5056A25F480550562036A4468C2691A
:1059A00022F4E04222F440720D6842EA052223F418
:1059B00000538D6843EA0533084DA84202D0084DD4
:1059C000A84204D124F480444D6944EA851444601B
:1059D000C2614D680564036230BD000000000140F3
:1059E0000004014030B50B461446026A056A25F0F2
:1059F00001050562816921F0F00141EA041122F0FC
:105A00000A021A438161026230BD30B50B4614466A
:105A1000056A25F0100505628169026A21F470416A
:105A200041EA043122F0A00242EA031281610262DB
:105A300030BD10B504462079012802D02079022813
:105A400003D16188208801F02BFAA089322801D186
:105A500001F066FA10BD000038B50446207901282F
:105A60007DD120884B2824DD2088B0F5897F20DC7B
:105A700060882A281DDD6088A2281ADAFBF7C8F999
:105A80004FF4FC60A22340F213122A2100904B2015
:105A9000FEF790FF32A000234FF6FF725A210090CC
:105AA0007320FBF7F1FB9FED310B324880ED000BCB
:105AB00055E020884B2826DD2088B0F5897F22DC40
:105AC0006088B6281FDD6088B0F5977F1BDAFBF78A
:105AD0009FF94FF4FC604FF4977340F21312B62114
